:100000000C942A000C94C7120C94FA120C942D1321
:100010000C9447000C9447000C9447000C94470044
:100020000C9447000C9447000C9447000C94470034
:100030000C9447000C9447000C9447000C94470024
:100040000C94F9070C9447000C9447000C9447005B
:100050000C94470011241FBECFE5D8E0DEBFCDBF12
:1000600011E0A0E6B0E0E0E2F6E302C005900D92F8
:10007000A638B107D9F711E0A6E8B1E001C01D929A
:10008000AD39B107E1F70E9423090C940E1B0C94C3
:100090000000EF92FF920F931F937B018C0120E0F1
:1000A00030E040E05FE40E94F50388238CF0C80153
:1000B000B70120E030E040E05FE40E94C1010E940F
:1000C00055049B01AC01205030404040504806C0D0
:1000D000C801B7010E9455049B01AC01B901CA01D6
:1000E0001F910F91FF90EF900895A0E0B0E0EBE733
:1000F000F0E00C94D71ADC012B01FA019C919230AC
:1001000008F439C1EB018881823008F433C194309E
:1001100069F4843009F02FC111969C91119789815F
:10012000981709F428C1A9E6B0E025C1843009F484
:1001300021C18230A9F4923009F01DC19A01AD01AC
:1001400088E0EA010990AE01E90109929E0181501F
:10015000C1F7E201898111969C918923818308C1AD
:10016000923009F407C112962D903C901397EB0141
:100170008A819B811496AD90BD90CD90DC901797AD
:10018000EC80FD800E811F819101281B390BB90184
:1001900037FF04C066277727621B730B6032710537
:1001A0000CF061C0121613066CF537014801062EDB
:1001B00004C096948794779467940A94D2F721E0C8
:1001C00030E040E050E004C0220F331F441F551FB1
:1001D0006A95D2F721503040404050402E213F21B7
:1001E00040235123211531054105510521F021E01E
:1001F00030E040E050E079018A01E628F72808293C
:1002000019293CC0232BD1F1260E371E350146019A
:10021000062E04C096948794779467940A94D2F734
:1002200021E030E040E050E004C0220F331F441FC3
:10023000551F6A95D2F721503040404050402A2146
:100240003B214C215D21211531054105510521F04E
:1002500021E030E040E050E059016A01A628B728CB
:10026000C828D9280BC0821593052CF01C01AA249C
:10027000BB24650103C0EE24FF24870111969C91E5
:10028000D20111968C91981709F445C0992339F041
:10029000A80197012A193B094C095D0906C0A6016E
:1002A00095012E193F09400B510B57FD08C01182D3
:1002B0003382228224833583468357831DC081E0A5
:1002C00081833382228288279927DC01821B930B4A
:1002D000A40BB50B84839583A683B7830DC0220F2F
:1002E000331F441F551F24833583468357838281E0
:1002F000938101979383828324813581468157813D
:10030000DA01C9010197A109B1098F5F9F4FAF4F72
:10031000BF4328F30BC0918333822282EA0CFB1C7B
:100320000C1D1D1DE482F5820683178383E0808304
:10033000248135814681578157FF1AC0C901AA27F8
:1003400097FDA095BA2F81709070A070B0705695EF
:10035000479537952795822B932BA42BB52B848318
:100360009583A683B7838281938101969383828349
:10037000DF0101C0D201CD01CDB7DEB7E2E10C94BF
:10038000F31AA0E2B0E0E7ECF1E00C94E31A698321
:100390007A838B839C832D833E834F835887E9E048
:1003A000EE2EF12CEC0EFD1ECE010196B7010E943F
:1003B00046068E010F5E1F4FCE010596B8010E94C2
:1003C00046068A8991E089278A8BC701B801AE0168
:1003D000475E5F4F0E9475000E947105A096E6E09F
:1003E0000C94FF1AA0E2B0E0E8EFF1E00C94E31AFD
:1003F00069837A838B839C832D833E834F835887C5
:10040000F9E0EF2EF12CEC0EFD1ECE010196B701A6
:100410000E9446068E010F5E1F4FCE010596B80161
:100420000E944606C701B801AE01475E5F4F0E94B9
:1004300075000E947105A096E6E00C94FF1AA0E2F8
:10044000B0E0E5E2F2E00C94D71A69837A838B83FB
:100450009C832D833E834F835887CE010196BE0136
:10046000675F7F4F0E944606CE010596BE016F5E14
:100470007F4F0E9446069985923088F089898230A4
:10048000C8F0943019F4823051F404C0843029F457
:10049000923081F489E690E0C6C0923049F420E0C1
:1004A0009A858A89981321E02A87CE010996BBC0D4
:1004B000823049F420E09A858A89981321E02A8BBA
:1004C000CE014196B0C02D843E844F8458886D88FB
:1004D0007E888F88988CEE24FF248701AA24BB2471
:1004E000650140E050E060E070E0E0E0F0E0C10174
:1004F00081709070892BE9F0E60CF71C081D191D1E
:100500009A01AB012A0D3B1D4C1D5D1D80E090E062
:10051000A0E0B0E0E614F7040805190520F481E036
:1005200090E0A0E0B0E0BA01A901480F591F6A1F8E
:100530007B1FAA0CBB1CCC1CDD1C97FE08C081E0F5
:1005400090E0A0E0B0E0A82AB92ACA2ADB2A3196B6
:10055000E032F10549F0660C771C881C991C569412
:10056000479437942794C3CFFA85EA892B893C892D
:100570008B859C85280F391F2E5F3F4F17C0CA01FE
:1005800081709070892B61F016950795F794E79428
:1005900080E090E0A0E0B0E8E82AF92A0A2B1B2BC3
:1005A00076956795579547952F5F3F4F77FDE7CF36
:1005B0000CC0440F551F661F771F17FD4160EE0CDE
:1005C000FF1C001F111F21503040403090E05907A0
:1005D00090E0690790E4790760F32B8F3C8FDB0193
:1005E000CA018F779070A070B07080349105A1051A
:1005F000B10561F447FD0AC0E114F10401051105DC
:1006000029F0405C5F4F6F4F7F4F40781A8EFE1786
:1006100011F081E08A8F4D8F5E8F6F8F78A383E01A
:10062000898FCE0149960E947105A096E2E10C9453
:10063000F31AA8E1B0E0EFE1F3E00C94DF1A69836C
:100640007A838B839C832D833E834F835887B9E0C5
:10065000EB2EF12CEC0EFD1ECE010196B7010E948F
:1006600046068E010F5E1F4FCE010596B8010E940F
:1006700046062985223008F47EC03989323010F4CC
:10068000B8017CC08A859A8989278A87243011F02D
:10069000223031F4231709F06EC069E670E06EC0B5
:1006A000343039F41D861E861F86188A1C861B86E8
:1006B00004C0323021F484E08987B7015FC02B8504
:1006C0003C858B899C89281B390B3C872B87ED84C3
:1006D000FE840F851889AD88BE88CF88D88CEA142F
:1006E000FB040C051D0540F4EE0CFF1C001F111F40
:1006F000215030403C872B8720E030E040E050E044
:1007000080E090E0A0E0B0E460E070E0EA14FB0478
:100710000C051D0540F0282B392B4A2B5B2BEA18C2
:10072000FB080C091D09B695A79597958795EE0CC2
:10073000FF1C001F111F6F5F7F4F6F31710531F775
:10074000DA01C9018F779070A070B0708034910584
:10075000A105B10561F427FD0AC0E114F10401050A
:10076000110529F0205C3F4F4F4F5F4F20782D87B8
:100770003E874F87588BBE01675F7F4FCB010E943A
:1007800071056896EAE00C94FB1AA8E1B0E0EBEC86
:10079000F3E00C94E31A69837A838B839C832D8323
:1007A0003E834F83588789E0E82EF12CEC0EFD1E26
:1007B000CE010196B7010E9446068E010F5E1F4FC3
:1007C000CE010596B8010E9446068985823040F028
:1007D0008989823028F0C701B8010E94BE0601C095
:1007E0008FEF6896E6E00C94FF1AA8E1B0E0EBEF1B
:1007F000F3E00C94E31A69837A838B839C832D83C3
:100800003E834F83588789E0E82EF12CEC0EFD1EC5
:10081000CE010196B7010E9446068E010F5E1F4F62
:10082000CE010596B8010E9446068985823040F0C7
:100830008989823028F0C701B8010E94BE0601C034
:100840008FEF6896E6E00C94FF1AA8E1B0E0EBE2C7
:10085000F4E00C94E31A69837A838B839C832D8361
:100860003E834F83588789E0E82EF12CEC0EFD1E65
:10087000CE010196B7010E9446068E010F5E1F4F02
:10088000CE010596B8010E9446068985823040F067
:100890008989823028F0C701B8010E94BE0601C0D4
:1008A00081E06896E6E00C94FF1AACE0B0E0EBE57E
:1008B000F4E00C94E71A69837A838B839C83CE01DE
:1008C0000196BE016B5F7F4F0E9446068D8182308C
:1008D00061F1823050F1843021F48E81882351F10E
:1008E0002EC02F81388537FD20C06E812F31310514
:1008F0001CF06623F9F023C08EE190E0821B930B7D
:1009000029853A854B855C8504C056954795379572
:1009100027958A95D2F76623B1F05095409530958A
:1009200021953F4F4F4F5F4F0EC020E030E040E039
:1009300050E009C02FEF3FEF4FEF5FE704C020E02A
:1009400030E040E050E8B901CA012C96E2E00C9496
:10095000031BA8E0B0E0EFEAF4E00C94DF1A7B019F
:100960008C01611571058105910519F482E0898377
:1009700060C083E089838EE1C82ED12CDC82CB82DB
:10098000ED82FE820F831887C801B7010E942205FD
:10099000FC013197F7FF3BC0222733272E1B3F0B6B
:1009A00057016801022E04C0D694C794B794A79447
:1009B0000A94D2F740E050E060E070E081E090E01F
:1009C000A0E0B0E004C0880F991FAA1FBB1F2A95A2
:1009D000D2F70197A109B1098E219F21A023B1234C
:1009E0000097A105B10521F041E050E060E070E022
:1009F0004A295B296C297D294D835E836F83788723
:100A00008EE190E08E1B9F0B9C838B8312C03097EE
:100A100081F00E2E04C0EE0CFF1C001F111F0A9463
:100A2000D2F7ED82FE820F831887CE1ADF0ADC82AE
:100A3000CB821A82CE0101960E9471052896EAE0C7
:100A40000C94FB1AEF92FF920F931F937B018C0182
:100A500080E0E81680E0F80681E0080780E01807EB
:100A600088F48FEFE816F1040105110531F028F044
:100A700088E090E0A0E0B0E017C080E090E0A0E067
:100A8000B0E012C080E0E81680E0F80680E00807D9
:100A900081E0180728F088E190E0A0E0B0E004C011
:100AA00080E190E0A0E0B0E020E230E040E050E003
:100AB000281B390B4A0B5B0B04C016950795F7945E
:100AC000E7948A95D2F7F701EF58FF4F8081281BF2
:100AD000310941095109C9011F910F91FF90EF9010
:100AE0000895DF92EF92FF920F931F93FC01E48031
:100AF000F58006811781D1808081823048F480E0C2
:100B000090E0A0E1B0E0E82AF92A0A2B1B2BA5C04F
:100B1000843009F49FC0823021F4EE24FF24870141
:100B200005C0E114F1040105110519F4E0E0F0E05D
:100B300096C0628173819FEF623879070CF05BC0C9
:100B400022E83FEF261B370B2A3131052CF020E03D
:100B500030E040E050E02AC0B801A701022E04C0F6
:100B600076956795579547950A94D2F781E090E07E
:100B7000A0E0B0E004C0880F991FAA1FBB1F2A95F0
:100B8000D2F70197A109B1098E219F21A023B1239A
:100B90000097A105B10521F081E090E0A0E0B0E070
:100BA0009A01AB01282B392B4A2B5B2BDA01C901A7
:100BB0008F779070A070B07080349105A105B10559
:100BC00039F427FF09C0205C3F4F4F4F5F4F04C0EF
:100BD000215C3F4F4F4F5F4FE0E0F0E02030A0E05E
:100BE0003A07A0E04A07A0E45A0710F0E1E0F0E07D
:100BF00079018A0127C06038710564F5FB01E1586D
:100C0000FF4FD801C7018F779070A070B07080340B
:100C10009105A105B10539F4E7FE0DC080E490E02F
:100C2000A0E0B0E004C08FE390E0A0E0B0E0E80E08
:100C3000F91E0A1F1B1F17FF05C016950795F7948D
:100C4000E794319687E016950795F794E7948A958F
:100C5000D1F705C0EE24FF248701EFEFF0E06E2FFF
:100C6000679566276795902F9F77D794DD24D79453
:100C70008E2F8695492F462B582F5D29B701CA0123
:100C80001F910F91FF90EF90DF900895FC01DB0121
:100C9000408151812281622F6F7770E0221F2227CD
:100CA000221F9381892F880F822B282F30E0991FD4
:100CB0009927991F11969C93119721153105A9F534
:100CC000411551056105710511F482E037C082E8D4
:100CD0009FEF13969C938E9312979A01AB0167E056
:100CE000220F331F441F551F6A95D1F783E08C9361
:100CF0000DC0220F331F441F551F12968D919C91DA
:100D00001397019713969C938E931297203080E04F
:100D1000380780E0480780E4580758F314962D936D
:100D20003D934D935C93179708952F3F310579F4C8
:100D3000411551056105710519F484E08C930895FE
:100D400064FF03C081E08C9312C01C9210C02F5727
:100D5000304013963C932E93129783E08C9387E058
:100D6000440F551F661F771F8A95D1F7706414963C
:100D70004D935D936D937C93179708951F93DC01BA
:100D8000FB019C91923008F447C08081823008F4C6
:100D900043C0943051F411961C91843099F58181AF
:100DA000682F70E0611B71093FC0843021F09230E0
:100DB00031F48230B9F18181882389F12DC01196F7
:100DC0001C9111978230F1F081811817D9F4129695
:100DD0002D913C911397828193818217930794F010
:100DE00028173907BCF014968D919D910D90BC91F8
:100DF000A02D2481358146815781281739074A075C
:100E00005B0718F4112341F00AC082179307A40767
:100E1000B50740F4112319F061E070E005C06FEFF1
:100E20007FEF02C060E070E0CB011F910895DF9377
:100E3000CF93CDB7DEB781E00E945C0880E00E94CE
:100E4000F3080E94E508A6E2B0E0E6E2F0E0808167
:100E500080688C9386E00E948D08CF91DF91089581
:100E6000DF93CF93CDB7DEB7E7E2F0E086E480838F
:100E7000CF91DF910895DF93CF9300D000D0CDB70D
:100E8000DEB78A837C836B8381E089838A810E94B9
:100E90003A08882399F18B819C81009779F1A6E229
:100EA000B0E0E6E2F0E0808180648C93E6E2F0E07E
:100EB000808182958F70882F90E08170907000976C
:100EC000A9F3E6E2F0E0808182958F70882F90E0B0
:100ED00081709070882381F0A6E2B0E0E6E2F0E055
:100EE000808180618C93E4E2F0E080819181EB81EC
:100EF000FC819183808303C0198201C0198289819A
:100F00000F900F900F900F90CF91DF910895DF9386
:100F1000CF9300D000D0CDB7DEB78A837C836B83BC
:100F200081E089838A810E943A08882321F18B819C
:100F30009C81009701F1A6E2B0E0E6E2F0E080815A
:100F400080648C93E6E2F0E0808182958F70882F38
:100F500090E0817090700097A9F3A6E2B0E0E6E21D
:100F6000F0E0808180618C93E5E2F0E08081EB81AC
:100F7000FC81808301C0198289810F900F900F90AE
:100F80000F90CF91DF910895DF93CF9300D000D0E1
:100F9000CDB7DEB78A837C836B8381E089838091C0
:100FA00086018823E9F48A810E943A088823C1F0E7
:100FB00081E0809386018B819C819093880180934E
:100FC0008701A6E2B0E0E6E2F0E0808188608C93E1
:100FD000A6E2B0E0E6E2F0E0808180648C9301C09C
:100FE000198289810F900F900F900F90CF91DF9110
:100FF00008951F920F920FB60F9211242F933F93D3
:101000004F935F936F937F938F939F93AF93BF9310
:10101000EF93FF93DF93CF93CDB7DEB78091870136
:1010200090918801009799F0209187013091880173
:10103000E4E2F0E080819181F9010995A6E2B0E057
:10104000E6E2F0E08081877F8C9310928601CF9159
:10105000DF91FF91EF91BF91AF919F918F917F9120
:101060006F915F914F913F912F910F900FBE0F9015
:101070001F901895DF93CF9300D0CDB7DEB78A834A
:1010800081E089838A81803280F4A7E2B0E0E7E2E0
:10109000F0E08081807E8C93A7E2B0E0E7E2F0E0B0
:1010A00090818A81892B8C9301C0198289810F904C
:1010B0000F90CF91DF910895DF93CF9300D0CDB7FC
:1010C000DEB78A8381E089838A818430F8F48A815B
:1010D0008230E1F0A7E2B0E0E7E2F0E080818F73D8
:1010E0008C93A7E2B0E0E7E2F0E08081282F8A81CC
:1010F000882F90E00024969587950794969587957C
:101100000794982F802D822B8C9301C0198289819E
:101110000F900F90CF91DF910895DF93CF9300D080
:10112000CDB7DEB78A8381E089838A81883080F4F5
:10113000A6E2B0E0E6E2F0E080818C7F8C93A6E24C
:10114000B0E0E6E2F0E090818A81892B8C9301C0C7
:10115000198289810F900F90CF91DF910895DF93CD
:10116000CF9300D0CDB7DEB78A8381E089838A81AF
:1011700082958F70882F90E0817090700097F1F4C5
:10118000A6E2B0E0E6E2F0E0808180628C93A0E528
:10119000B0E0E0E5F0E080818F708C93A0E5B0E0F6
:1011A000E0E5F0E090818A81892B8C93A6E2B0E0A3
:1011B000E6E2F0E0808180648C9301C0198289812D
:1011C0000F900F90CF91DF910895DF93CF93CDB71C
:1011D000DEB7A6E2B0E0E6E2F0E080818F7D8C939E
:1011E000CF91DF910895DF93CF9300D000D0CDB79A
:1011F000DEB78A8381E089838A81282F30E03C83AF
:101200002B838B819C81009769F02B813C8121305D
:10121000310581F4A7E2B0E0E7E2F0E0808180628E
:101220008C9309C0A7E2B0E0E7E2F0E080818F7D17
:101230008C9301C0198289810F900F900F900F90AD
:10124000CF91DF910895EF92FF920F931F93DF9359
:10125000CF93CDB7DEB7E1970FB6F894DEBF0FBEE0
:10126000CDBF1DA21FA21EA280E090E0A0E0B0E0D2
:1012700089A39AA3ABA3BCA380E090E0A0E0B0E078
:101280008D8F9E8FAF8FB8A30E941B0B0E947C1383
:101290000E941707CE0188969EA78DA7E4E6F0E08E
:1012A000F8ABEFA7F5E0F9ABEFA5F8A900808FA5A3
:1012B00098A9019698AB8FA7EDA5FEA500828DA5F4
:1012C0009EA501969EA78DA799A9915099ABE9A9D2
:1012D000EE2351F7CE0188960E9442191DA2AEC09E
:1012E0008DA1882F90E0FC01E158FE4F908182E0B3
:1012F000692F0E9432109E012A5D3F4F86E0B9019E
:101300000E943B07882309F48CC08DA1882F90E0B0
:101310002EA13FA1880F991FFC01E757FE4F318393
:10132000208380E061E00E941F1A8EA19FA1CC0162
:10133000A0E0B0E0BC01CD010E94781980E090E00F
:10134000AAEFB3E4898F9A8FAB8FBC8F698D7A8DAA
:101350008B8D9C8D20E030E04AE753E40E941F0211
:10136000DC01CB018D8B9E8BAF8BB88F6D897E8915
:101370008F89988D20E030E040E85FE30E942504EB
:1013800088232CF481E090E09C8B8B8B3FC06D898F
:101390007E898F89988D20E03FEF4FE757E40E94C8
:1013A000C50318164CF5698D7A8D8B8D9C8D20E0C8
:1013B00030E040E251E40E941F02DC01CB01BC019D
:1013C000CD010E944900DC01CB019C8B8B8B0FC0AF
:1013D00089E190E09A8B898B89899A890197F1F745
:1013E0009A8B898B8B899C8901979C8B8B8B8B89A2
:1013F0009C89009769F71FC06D897E898F89988DB8
:101400000E944900DC01CB019C8B8B8B8B899C89D2
:10141000988B8F878F8598890197F1F7988B8F87A5
:101420000AC08DA1882F90E0880F991FFC01E75713
:10143000FE4F118210828DA18F5F8DA38DA1873009
:1014400008F44ECF86E08DA38DA1882F90E0880F01
:10145000991FFC01E757FE4F80819181F1E0883BA5
:101460009F0708F4E4C08EA19FA1CC01A0E0B0E0EA
:1014700028E833E140E050E0BC01CD010E94961A1B
:10148000DC01CB01BC01CD010E94A904DC01CB0130
:10149000BC01CD0120E030E040E854E40E94190393
:1014A000DC01CB018D8F9E8FAF8FB8A38DA1882FCC
:1014B00090E0880F991FFC01EF58FE4F80819181C9
:1014C000CC01A0E0B0E0BC01CD010E94A904DC0188
:1014D000CB01BC01CD012D8D3E8D4F8D58A10E94B9
:1014E0001F02DC01CB017C018D0160E070E686E823
:1014F00095E42D8D3E8D4F8D58A10E94C101DC01D8
:10150000CB019C01AD01C801B7010E941903DC01A8
:10151000CB0189A39AA3ABA3BCA384E060E00E94A3
:101520001F1A69A17AA18BA19CA10E944900DC012C
:10153000CB01BC01CD010E94781984EF0E940617EF
:1015400080E690E00E94421980E090E0AAE7B4E4CF
:101550008B879C87AD87BE876B857C858D859E85B7
:1015600020E030E04AE753E40E941F02DC01CB0197
:101570008F839887A987BA876F81788589859A85AF
:1015800020E030E040E85FE30E94250488232CF44B
:1015900081E090E09E838D833FC06F81788589854F
:1015A0009A8520E03FEF4FE757E40E94C5031816E5
:1015B0004CF56B857C858D859E8520E030E040E292
:1015C00051E40E941F02DC01CB01BC01CD010E944D
:1015D0004900DC01CB019E838D830FC089E190E03F
:1015E0009C838B838B819C810197F1F79C838B83F8
:1015F0008D819E8101979E838D838D819E81009731
:1016000069F76CCE6F81788589859A850E9449003B
:10161000DC01CB019E838D838D819E819A8389839A
:1016200089819A810197F1F79A83898357CE8DA199
:1016300081508DA309CFDF93CF93CDB7DEB7EAE317
:10164000F0E01082E7E3F0E01082E4E3F0E08FEFF7
:101650008083E1E3F0E08FEF8083EBE3F0E0108242
:10166000E8E3F0E01082E5E3F0E01082E2E3F0E08E
:101670001082CF91DF910895DF93CF93CDB7DEB77E
:101680002E970FB6F894DEBF0FBECDBF8A836B8353
:101690004C8381E089838A81843008F0BEC18B81CC
:1016A000883008F0BAC18A81282F30E03E872D8724
:1016B0008D859E858130910509F47DC02D853E85FF
:1016C000223031052CF48D859E85009771F0A6C1DE
:1016D0002D853E852230310509F4D3C08D859E8548
:1016E0008330910509F433C199C18C81282F30E0F2
:1016F0003C872B878B859C858130910551F02B850C
:101700003C852230310571F18B859C850097A9F0CD
:1017100050C0AAE3B0E0EAE3F0E08081482F8B817B
:10172000282F30E081E090E0022E02C0880F991F40
:101730000A94E2F7842B8C9371C1AAE3B0E0EAE348
:10174000F0E08081482F8B81282F30E081E090E00D
:10175000022E02C0880F991F0A94E2F78095842315
:101760008C935CC1AAE3B0E0EAE3F0E08081482F0B
:101770008B81282F30E081E090E002C0880F991F14
:101780002A95E2F7809584238C93ABE3B0E0EBE3FA
:10179000F0E08081482F8B81282F30E081E090E0BD
:1017A000022E02C0880F991F0A94E2F7842B8C93B3
:1017B00035C1198233C18C81282F30E03A872987BF
:1017C00089859A858130910551F029853A852230A5
:1017D000310571F189859A850097A9F050C0A7E37A
:1017E000B0E0E7E3F0E08081482F8B81282F30E0E4
:1017F00081E090E0022E02C0880F991F0A94E2F760
:10180000842B8C930BC1A7E3B0E0E7E3F0E0808189
:10181000482F8B81282F30E081E090E0022E02C01B
:10182000880F991F0A94E2F7809584238C93F6C061
:10183000A7E3B0E0E7E3F0E08081482F8B81282F19
:1018400030E081E090E002C0880F991F2A95E2F70E
:10185000809584238C93A8E3B0E0E8E3F0E08081F6
:10186000482F8B81282F30E081E090E0022E02C0CB
:10187000880F991F0A94E2F7842B8C93CFC01982AA
:10188000CDC08C81282F30E038872F838F819885B9
:101890008130910551F02F8138852230310571F169
:1018A0008F8198850097A9F050C0A4E3B0E0E4E3ED
:1018B000F0E08081482F8B81282F30E081E090E09C
:1018C000022E02C0880F991F0A94E2F7842B8C9392
:1018D000A5C0A4E3B0E0E4E3F0E08081482F8B8171
:1018E000282F30E081E090E0022E02C0880F991F7F
:1018F0000A94E2F7809584238C9390C0A4E3B0E02F
:10190000E4E3F0E08081482F8B81282F30E081E0F4
:1019100090E002C0880F991F2A95E2F780958423F2
:101920008C93A5E3B0E0E5E3F0E08081482F8B8164
:10193000282F30E081E090E0022E02C0880F991F2E
:101940000A94E2F7842B8C9369C0198267C08C815A
:10195000282F30E03E832D838D819E81813091053B
:1019600051F02D813E812230310571F18D819E81B2
:101970000097A9F050C0A1E3B0E0E1E3F0E080817E
:10198000482F8B81282F30E081E090E0022E02C0AA
:10199000880F991F0A94E2F7842B8C933FC0A1E330
:1019A000B0E0E1E3F0E08081482F8B81282F30E028
:1019B00081E090E0022E02C0880F991F0A94E2F79E
:1019C000809584238C932AC0A1E3B0E0E1E3F0E0AA
:1019D0008081482F8B81282F30E081E090E002C089
:1019E000880F991F2A95E2F7809584238C93A2E3B0
:1019F000B0E0E2E3F0E08081482F8B81282F30E0D7
:101A000081E090E0022E02C0880F991F0A94E2F74D
:101A1000842B8C9303C0198201C0198289812E9670
:101A20000FB6F894DEBF0FBECDBFCF91DF91089502
:101A3000DF93CF93CDB7DEB72E970FB6F894DEBF06
:101A40000FBECDBF8A836B834C8381E089838B81FA
:101A5000883008F00AC18C81882321F08C81813084
:101A600009F003C18A81282F30E03E872D878D85BC
:101A70009E858130910509F44FC02D853E85223029
:101A800031052CF48D859E85009771F0ECC02D8575
:101A90003E852230310509F477C08D859E858330DF
:101AA000910509F4A9C0DFC08C81282F30E03C8764
:101AB0002B878B859C850097D1F02B853C85213029
:101AC000310509F0D3C0ABE3B0E0EBE3F0E0808197
:101AD000482F8B81282F30E081E090E0022E02C059
:101AE000880F991F0A94E2F7842B8C93BFC0ABE355
:101AF000B0E0EBE3F0E08081482F8B81282F30E0CD
:101B000081E090E0022E02C0880F991F0A94E2F74C
:101B1000809584238C93AAC08C81282F30E03A874B
:101B2000298789859A850097D1F029853A852130C2
:101B3000310509F09BC0A8E3B0E0E8E3F0E0808164
:101B4000482F8B81282F30E081E090E0022E02C0E8
:101B5000880F991F0A94E2F7842B8C9387C0A8E31F
:101B6000B0E0E8E3F0E08081482F8B81282F30E05F
:101B700081E090E0022E02C0880F991F0A94E2F7DC
:101B8000809584238C9372C08C81282F30E0388715
:101B90002F838F8198850097D1F02F813885213050
:101BA000310509F063C0A5E3B0E0E5E3F0E0808132
:101BB000482F8B81282F30E081E090E0022E02C078
:101BC000880F991F0A94E2F7842B8C934FC0A5E3EA
:101BD000B0E0E5E3F0E08081482F8B81282F30E0F2
:101BE00081E090E0022E02C0880F991F0A94E2F76C
:101BF000809584238C933AC08C81282F30E03E83DB
:101C00002D838D819E810097C9F02D813E812130E9
:101C1000310561F5A2E3B0E0E2E3F0E08081482F16
:101C20008B81282F30E081E090E0022E02C0880FE7
:101C3000991F0A94E2F7842B8C9318C0A2E3B0E0BA
:101C4000E2E3F0E08081482F8B81282F30E081E0B3
:101C500090E0022E02C0880F991F0A94E2F7809547
:101C600084238C9303C0198201C0198289812E9626
:101C70000FB6F894DEBF0FBECDBFCF91DF910895B0
:101C8000DF93CF93CDB7DEB727970FB6F894DEBFBB
:101C90000FBECDBF8A836B835D834C8381E08983D4
:101CA0008B81883008F078C08C819D81009709F481
:101CB00073C08A81282F30E03F832E834E815F815D
:101CC0004130510559F18E819F818230910534F464
:101CD0002E813F812115310569F05CC04E815F8105
:101CE0004230510579F18E819F818330910509F44D
:101CF0003DC050C0E9E3F0E08081282F30E08B81C7
:101D0000882F90E0A90102C0559547958A95E2F782
:101D1000CA018170EC81FD8180833FC0E6E3F0E081
:101D20008081282F30E08B81882F90E0A90102C0AC
:101D3000559547958A95E2F7CA018170EC81FD813E
:101D400080832BC0E3E3F0E08081282F30E08B819B
:101D5000882F90E0A90102C0559547958A95E2F732
:101D6000CA018170EC81FD81808317C0E0E3F0E05F
:101D70008081282F30E08B81882F90E0A90102C05C
:101D8000559547958A95E2F7CA018170EC81FD81EE
:101D9000808303C0198201C01982898127960FB6FA
:101DA000F894DEBF0FBECDBFCF91DF910895DF93D2
:101DB000CF9300D000D00F92CDB7DEB78A836B836C
:101DC00019828B81883008F072C081E089838A8112
:101DD000282F30E03D832C838C819D8181309105BB
:101DE00049F12C813D81223031052CF48C819D817B
:101DF000009761F05BC02C813D812230310571F18B
:101E00008C819D8183309105E9F150C0ABE3B0E056
:101E1000EBE3F0E08081482F8B81282F30E081E0D8
:101E200090E0022E02C0880F991F0A94E2F78427DF
:101E30008C933DC0A8E3B0E0E8E3F0E08081482F58
:101E40008B81282F30E081E090E0022E02C0880FC5
:101E5000991F0A94E2F784278C9329C0A5E3B0E088
:101E6000E5E3F0E08081482F8B81282F30E081E08E
:101E700090E0022E02C0880F991F0A94E2F784278F
:101E80008C9315C0A2E3B0E0E2E3F0E08081482F3C
:101E90008B81282F30E081E090E0022E02C0880F75
:101EA000991F0A94E2F784278C9301C019828981D3
:101EB0000F900F900F900F900F90CF91DF9108959A
:101EC000DF93CF93CDB7DEB72D970FB6F894DEBF73
:101ED0000FBECDBF8A836B8381E089838A81282FDF
:101EE00030E03D872C878C859D8581309105E9F117
:101EF0002C853D85223031052CF48C859D850097FD
:101F000071F0A5C02C853D852230310509F453C000
:101F10008C859D858330910509F473C098C08B81B1
:101F2000282F30E03B872A878A859B858130910561
:101F3000A9F02A853B852230310541F08A859B85B1
:101F4000009789F4EAE3F0E0108282C0EAE3F0E06F
:101F50001082EBE3F0E08FEF80837AC0EAE3F0E0F9
:101F60008FEF808375C0198273C08B81282F30E07A
:101F7000398728878885998581309105A9F028853A
:101F800039852230310541F088859985009789F49B
:101F9000E7E3F0E010825CC0E7E3F0E01082E8E302
:101FA000F0E08FEF808354C0E7E3F0E08FEF8083B1
:101FB0004FC019824DC08B81282F30E03F832E8384
:101FC0008E819F8181309105A9F02E813F81223041
:101FD000310541F08E819F81009789F4E4E3F0E0C0
:101FE000108236C0E4E3F0E01082E5E3F0E08FEF2A
:101FF00080832EC0E4E3F0E08FEF808329C0198254
:1020000027C08B81282F30E03D832C838C819D81DC
:1020100081309105A9F02C813D812230310541F0BC
:102020008C819D81009789F4E1E3F0E0108210C07B
:10203000E1E3F0E01082E2E3F0E08FEF808308C09C
:10204000E1E3F0E08FEF808303C0198201C01982C1
:1020500089812D960FB6F894DEBF0FBECDBFCF910C
:10206000DF910895DF93CF9300D000D00F92CDB7CA
:10207000DEB78A836B8381E089838A81282F30E0F1
:102080003D832C838C819D8181309105D1F02C8101
:102090003D81223031052CF48C819D81009761F0C7
:1020A0001FC02C813D812230310581F08C819D81C2
:1020B0008330910581F014C0EBE3F0E08B818083E5
:1020C00010C0E8E3F0E08B8180830BC0E5E3F0E033
:1020D0008B81808306C0E2E3F0E08B81808301C0C6
:1020E000198289810F900F900F900F900F90CF91D0
:1020F000DF910895DF93CF9300D000D000D0CDB70B
:10210000DEB78A837C836B8381E089838B819C81AA
:102110000097E9F18A81282F30E03E832D838D815D
:102120009E8181309105E1F02D813E812230310583
:102130002CF48D819E81009761F027C02D813E8116
:1021400022303105A1F08D819E8183309105B1F05F
:102150001CC0E9E3F0E08081EB81FC81808318C042
:10216000E6E3F0E08081EB81FC81808311C0E3E352
:10217000F0E08081EB81FC8180830AC0E0E3F0E045
:102180008081EB81FC81808303C0198201C01982A8
:10219000898126960FB6F894DEBF0FBECDBFCF91D2
:1021A000DF910895DF93CF93CDB7DEB72B970FB6AE
:1021B000F894DEBF0FBECDBF8A836B8381E0898335
:1021C0008A81282F30E03B872A878A859B8581304A
:1021D000910509F486C02A853B852230310509F432
:1021E000FBC08A859B85009709F024C18B81282F2D
:1021F00030E039872887888599858130910509F4F1
:1022000042C0288539852230310534F48885998586
:10221000009709F44EC063C0288539852230310506
:1022200031F08885998583309105B9F058C0A5E5CE
:10223000B0E0E5E5F0E080818D7F8C93A5E5B0E02E
:10224000E5E5F0E0808181608C93ABE5B0E0EBE503
:10225000F0E0808180648C93EEC0A5E5B0E0E5E518
:10226000F0E080818D7F8C93A5E5B0E0E5E5F0E0BE
:1022700080818E7F8C93ABE5B0E0EBE5F0E0808170
:1022800080648C93D8C0A5E5B0E0E5E5F0E08081FE
:1022900082608C93A5E5B0E0E5E5F0E080818160A7
:1022A0008C93ABE5B0E0EBE5F0E0808180648C934B
:1022B000C2C0A5E5B0E0E5E5F0E0808182608C93E6
:1022C000A5E5B0E0E5E5F0E080818E7F8C93ABE59D
:1022D000B0E0EBE5F0E0808180648C93ACC01982C3
:1022E000AAC08B81282F30E03F832E838E819F816F
:1022F0008130910509F442C02E813F8122303105A1
:1023000034F48E819F81009709F44EC063C02E8102
:102310003F812230310531F08E819F8183309105DC
:10232000B9F058C0A5E5B0E0E5E5F0E08081877F31
:102330008C93A5E5B0E0E5E5F0E0808184608C93C6
:10234000ABE5B0E0EBE5F0E0808180688C9373C092
:10235000A5E5B0E0E5E5F0E08081877F8C93A5E519
:10236000B0E0E5E5F0E080818B7F8C93ABE5B0E0F9
:10237000EBE5F0E0808180688C935DC0A5E5B0E07E
:10238000E5E5F0E0808188608C93A5E5B0E0E5E5C7
:10239000F0E0808184608C93ABE5B0E0EBE5F0E0A9
:1023A000808180688C9347C0A5E5B0E0E5E5F0E06A
:1023B000808188608C93A5E5B0E0E5E5F0E0808160
:1023C0008B7F8C93ABE5B0E0EBE5F0E0808180683B
:1023D0008C9331C019822FC08B81282F30E03D8330
:1023E0002C838C819D810097A1F02C813D8121302F
:1023F0003105F1F4A4E5B0E0E4E5F0E0808180642B
:102400008C93ABE5B0E0EBE5F0E0808180628C93EB
:1024100012C0A4E5B0E0E4E5F0E080818F7B8C930E
:10242000ABE5B0E0EBE5F0E0808180628C9303C027
:10243000198201C0198289812B960FB6F894DEBFEC
:102440000FBECDBFCF91DF910895DF93CF9300D022
:1024500000D0CDB7DEB78A8381E089838A81282FB7
:1024600030E03C832B838B819C818130910589F006
:102470002B813C8122303105A1F08B819C8100971A
:10248000C1F4ABE5B0E0EBE5F0E0808180648C93D3
:1024900011C0ABE5B0E0EBE5F0E0808180688C93A3
:1024A00009C0ABE5B0E0EBE5F0E0808180628C93A1
:1024B00001C0198289810F900F900F900F90CF91DA
:1024C000DF910895DF93CF9300D000D0CDB7DEB772
:1024D0008A8381E089838A81282F30E03C832B83A3
:1024E0008B819C818130910589F02B813C81223048
:1024F0003105A1F08B819C810097C1F4ABE5B0E080
:10250000EBE5F0E080818F7B8C9311C0ABE5B0E010
:10251000EBE5F0E080818F778C9309C0ABE5B0E00C
:10252000EBE5F0E080818F7D8C9301C01982898179
:102530000F900F900F900F90CF91DF910895DF9340
:10254000CF9300D000D0CDB7DEB78A837C836B8376
:1025500081E089838B819C81009781F08A8183301F
:1025600068F48A81882F90E0880F991FFC01E95652
:10257000FE4F8B819C819183808301C01982898168
:102580000F900F900F900F90CF91DF9108951F92B1
:102590000F920FB60F9211242F933F934F935F9397
:1025A0006F937F938F939F93AF93BF93EF93FF931B
:1025B000DF93CF93CDB7DEB78091970190919801CB
:1025C000009729F0E0919701F09198010995CF913A
:1025D000DF91FF91EF91BF91AF919F918F917F918B
:1025E0006F915F914F913F912F910F900FBE0F9080
:1025F0001F9018951F920F920FB60F9211242F93D0
:102600003F934F935F936F937F938F939F93AF937A
:10261000BF93EF93FF93DF93CF93CDB7DEB7809156
:10262000990190919A01009729F0E0919901F09118
:102630009A010995CF91DF91FF91EF91BF91AF91F1
:102640009F918F917F916F915F914F913F912F91CA
:102650000F900FBE0F901F9018951F920F920FB6FC
:102660000F9211242F933F934F935F936F937F9318
:102670008F939F93AF93BF93EF93FF93DF93CF938A
:10268000CDB7DEB780919B0190919C01009729F016
:10269000E0919B01F0919C010995CF91DF91FF9111
:1026A000EF91BF91AF919F918F917F916F915F91CA
:1026B0004F913F912F910F900FBE0F901F90189543
:1026C000DF93CF93CDB7DEB7AFE5B0E0EFE5F0E055
:1026D000808180688C93CF91DF910895DF93CF93B1
:1026E000CDB7DEB7AFE5B0E0EFE5F0E080818F7702
:1026F0008C93CF91DF9108950F931F93DF93CF9326
:10270000CDB7DEB7CA55D0400FB6F894DEBF0FBEC6
:10271000CDBFFE01E95AFF4F80E090E0ACE0B2E4AB
:1027200080839183A283B3838E010D5A1F4FFE01D4
:10273000E95AFF4F608171818281938120E030E00E
:102740004AEF54E40E941F02DC01CB01F8018083B0
:102750009183A283B383FE01ED5AFF4F60817181A3
:102760008281938120E030E040E85FE30E9425040D
:10277000882344F4FE01EF5AFF4F81E090E09183FB
:10278000808364C0FE01ED5AFF4F608171818281B8
:10279000938120E03FEF4FE757E40E94C5031816EE
:1027A0000CF043C0FE01E95AFF4F608171818281C4
:1027B000938120E030E040E251E40E941F02DC01FE
:1027C000CB018E010F5A1F4FBC01CD010E94490061
:1027D000DC01CB01F801918380831FC0FE01E15B26
:1027E000FF4F88EC90E091838083FE01E15BFF4F17
:1027F000808191810197F1F7FE01E15BFF4F9183A9
:102800008083DE01AF5ABF4FFE01EF5AFF4F808138
:102810009181019711969C938E93FE01EF5AFF4F81
:10282000808191810097D1F627C08E010F5A1F4FEA
:10283000FE01ED5AFF4F60817181828193810E9478
:102840004900DC01CB01F80191838083DE01A35BA9
:10285000BF4FFE01EF5AFF4F808191818D939C9372
:10286000FE01E35BFF4F808191810197F1F7FE014B
:10287000E35BFF4F9183808383E064E040E00E944C
:10288000180D83E065E040E00E94180D80E20E9490
:102890003F1A83E066E041E00E94180DFE01E75B0D
:1028A000FF4F80E090E0A0E0B0E480839183A283BA
:1028B000B3838E010B5B1F4FFE01E75BFF4F60810F
:1028C00071818281938120E030E04AEF54E40E94DC
:1028D0001F02DC01CB01F80180839183A283B383C3
:1028E000FE01EB5BFF4F608171818281938120E06B
:1028F00030E040E85FE30E942504882344F4FE01B1
:10290000ED5BFF4F81E090E09183808364C0FE0126
:10291000EB5BFF4F608171818281938120E03FEF0B
:102920004FE757E40E94C50318160CF043C0FE01A0
:10293000E75BFF4F608171818281938120E030E00D
:1029400040E251E40E941F02DC01CB018E010D5BCD
:102950001F4FBC01CD010E944900DC01CB01F801F1
:10296000918380831FC0FE01EF5BFF4F88EC90E0F6
:1029700091838083FE01EF5BFF4F808191810197FE
:10298000F1F7FE01EF5BFF4F91838083DE01AD5BCA
:10299000BF4FFE01ED5BFF4F808191810197119642
:1029A0009C938E93FE01ED5BFF4F80819181009798
:1029B000D1F624C08E010D5B1F4FFE01EB5BFF4F74
:1029C00060817181828193810E944900DC01CB0189
:1029D000F80191838083FE01ED5BFF4F808191813F
:1029E000FE01FF9691838083FE01FF968081918195
:1029F0000197F1F7FE01FF969183808383E066E003
:102A000040E00E94180D80E090E0A0E2B2E48BAFBD
:102A10009CAFADAFBEAF6BAD7CAD8DAD9EAD2BEAC7
:102A20003AEA4AE250E40E941F02DC01CB018FAB7C
:102A300098AFA9AFBAAF6FA978AD89AD9AAD20E0D4
:102A400030E040E85FE30E94250488231CF481E025
:102A50008EAB91C06FA978AD89AD9AAD20E030E022
:102A60004FE753E40E94C50318160CF07BC06BAD12
:102A70007CAD8DAD9EAD20E030E04AE754E40E948D
:102A80001903DC01CB018AAB9BABACABBDAB6AA934
:102A90007BA98CA99DA920E030E04AEF54E40E9474
:102AA0001F02DC01CB018EA79FA7A8ABB9AB6EA517
:102AB0007FA588A999A920E030E040E85FE30E9463
:102AC000250488232CF481E090E09DA78CA73FC0CB
:102AD0006EA57FA588A999A920E03FEF4FE757E4AD
:102AE0000E94C50318164CF56AA97BA98CA99DA95B
:102AF00020E030E040E251E40E941F02DC01CB0103
:102B0000BC01CD010E944900DC01CB019DA78CA72F
:102B10000FC088EC90E09BA78AA78AA59BA5019788
:102B2000F1F79BA78AA78CA59DA501979DA78CA7C8
:102B30008CA59DA5009769F724C06EA57FA588A9DF
:102B400099A90E944900DC01CB019DA78CA78CA507
:102B50009DA599A788A788A599A50197F1F799A799
:102B600088A70FC06FA978AD89AD9AAD0E944900C2
:102B7000DC01CB018EAB8EA98FA38FA18A95F1F7D3
:102B80008FA38FE00E94241880E090E0A0E2B2E4DE
:102B90008BA39CA3ADA3BEA36BA17CA18DA19EA181
:102BA0002BEA3AEA4AE250E40E941F02DC01CB0120
:102BB0008F8F98A3A9A3BAA36F8D78A189A19AA199
:102BC00020E030E040E85FE30E94250488231CF405
:102BD00081E08E8F91C06F8D78A189A19AA120E0AC
:102BE00030E04FE753E40E94C50318160CF07BC099
:102BF0006BA17CA18DA19EA120E030E04AE754E4C6
:102C00000E941903DC01CB018A8F9B8FAC8FBD8F93
:102C10006A8D7B8D8C8D9D8D20E030E04AEF54E4F1
:102C20000E941F02DC01CB018E8B9F8BA88FB98F76
:102C30006E897F89888D998D20E030E040E85FE3E0
:102C40000E94250488232CF481E090E09D8B8C8BDE
:102C50003FC06E897F89888D998D20E03FEF4FE7D7
:102C600057E40E94C50318164CF56A8D7B8D8C8D38
:102C70009D8D20E030E040E251E40E941F02DC0123
:102C8000CB01BC01CD010E944900DC01CB019D8B31
:102C90008C8B0FC088EC90E09B8B8A8B8A899B89F8
:102CA0000197F1F79B8B8A8B8C899D8901979D8B6E
:102CB0008C8B8C899D89009769F724C06E897F89E8
:102CC000888D998D0E944900DC01CB019D8B8C8BF6
:102CD0008C899D89998B888B888999890197F1F7CF
:102CE000998B888B0FC06F8D78A189A19AA10E94C2
:102CF0004900DC01CB018E8F8E8D8F878F858A9561
:102D0000F1F78F8781E00E94241880E090E0A0E036
:102D1000B0E48B879C87AD87BE876B857C858D856E
:102D20009E8520E030E04AEF54E40E941F02DC015F
:102D3000CB018F839887A987BA876F81788589852A
:102D40009A8520E030E040E85FE30E942504882374
:102D50002CF481E090E09E838D833FC06F81788565
:102D600089859A8520E03FEF4FE757E40E94C5032D
:102D700018164CF56B857C858D859E8520E030E0AE
:102D800040E251E40E941F02DC01CB01BC01CD01F5
:102D90000E944900DC01CB019E838D830FC088EC2B
:102DA00090E09C838B838B819C810197F1F79C83BE
:102DB0008B838D819E8101979E838D838D819E81E2
:102DC000009769F714C06F81788589859A850E947C
:102DD0004900DC01CB019E838D838D819E819A8386
:102DE000898389819A810197F1F79A83898386E0A3
:102DF0000E942418C65ADF4F0FB6F894DEBF0FBEEC
:102E0000CDBFCF91DF911F910F910895DF93CF93A5
:102E1000CDB7DEB76D970FB6F894DEBF0FBECDBF4E
:102E20008D8F83E064E041E00E94180D83E065E04F
:102E300040E00E94180D8D8D0E943F1A83E066E0ED
:102E400041E00E94180D80E090E0A0E0B0E4898F9E
:102E50009A8FAB8FBC8F698D7A8D8B8D9C8D20E086
:102E600030E04AEF54E40E941F02DC01CB018D8B5D
:102E70009E8BAF8BB88F6D897E898F89988D20E06E
:102E800030E040E85FE30E94250488232CF481E0D1
:102E900090E09C8B8B8B3FC06D897E898F89988D4C
:102EA00020E03FEF4FE757E40E94C50318164CF5AA
:102EB000698D7A8D8B8D9C8D20E030E040E251E46D
:102EC0000E941F02DC01CB01BC01CD010E94490020
:102ED000DC01CB019C8B8B8B0FC088EC90E09A8B34
:102EE000898B89899A890197F1F79A8B898B8B89CC
:102EF0009C8901979C8B8B8B8B899C89009769F7A8
:102F000014C06D897E898F89988D0E944900DC01EB
:102F1000CB019C8B8B8B8B899C89988B8F878F8522
:102F200098890197F1F7988B8F8783E066E040E0FE
:102F30000E94180D8D8D8295807F0E943F1A83E03C
:102F400066E041E00E94180D80E090E0A0E0B0E46F
:102F50008B879C87AD87BE876B857C858D859E859D
:102F600020E030E04AEF54E40E941F02DC01CB0174
:102F70008F839887A987BA876F81788589859A8595
:102F800020E030E040E85FE30E94250488232CF431
:102F900081E090E09E838D833FC06F817885898535
:102FA0009A8520E03FEF4FE757E40E94C5031816CB
:102FB0004CF56B857C858D859E8520E030E040E278
:102FC00051E40E941F02DC01CB01BC01CD010E9433
:102FD0004900DC01CB019E838D830FC088EC90E01B
:102FE0009C838B838B819C810197F1F79C838B83DE
:102FF0008D819E8101979E838D838D819E81009717
:1030000069F714C06F81788589859A850E94490087
:10301000DC01CB019E838D838D819E819A83898380
:1030200089819A810197F1F79A83898383E066E029
:1030300040E00E94180D6D960FB6F894DEBF0FBEEB
:10304000CDBFCF91DF910895DF93CF93CDB7DEB79A
:103050006D970FB6F894DEBF0FBECDBF8D8F83E0A6
:1030600064E040E00E94180D83E065E040E00E94CB
:10307000180D8D8D0E943F1A83E066E041E00E94AA
:10308000180D80E090E0A0E0B0E4898F9A8FAB8FBC
:10309000BC8F698D7A8D8B8D9C8D20E030E04AEF5E
:1030A00054E40E941F02DC01CB018D8B9E8BAF8B01
:1030B000B88F6D897E898F89988D20E030E040E857
:1030C0005FE30E94250488232CF481E090E09C8B30
:1030D0008B8B3FC06D897E898F89988D20E03FEF73
:1030E0004FE757E40E94C50318164CF5698D7A8D99
:1030F0008B8D9C8D20E030E040E251E40E941F0265
:10310000DC01CB01BC01CD010E944900DC01CB01F7
:103110009C8B8B8B0FC088EC90E09A8B898B898974
:103120009A890197F1F79A8B898B8B899C890197F2
:103130009C8B8B8B8B899C89009769F714C06D8958
:103140007E898F89988D0E944900DC01CB019C8B80
:103150008B8B8B899C89988B8F878F85988901971A
:10316000F1F7988B8F8783E066E040E00E94180DAE
:103170008D8D8295807F0E943F1A83E066E041E05A
:103180000E94180D80E090E0A0E0B0E48B879C875F
:10319000AD87BE876B857C858D859E8520E030E080
:1031A0004AEF54E40E941F02DC01CB018F83988711
:1031B000A987BA876F81788589859A8520E030E074
:1031C00040E85FE30E94250488232CF481E090E02E
:1031D0009E838D833FC06F81788589859A8520E0A5
:1031E0003FEF4FE757E40E94C50318164CF56B8577
:1031F0007C858D859E8520E030E040E251E40E9490
:103200001F02DC01CB01BC01CD010E944900DC01A1
:10321000CB019E838D830FC088EC90E09C838B83D1
:103220008B819C810197F1F79C838B838D819E819B
:1032300001979E838D838D819E81009769F714C0CD
:103240006F81788589859A850E944900DC01CB01D0
:103250009E838D838D819E819A83898389819A81C2
:103260000197F1F79A83898383E066E040E00E944A
:10327000180D6D960FB6F894DEBF0FBECDBFCF917F
:10328000DF910895DF93CF9300D000D000D0CDB769
:10329000DEB79E838D8319821A821B821C8215C021
:1032A00029813A818D819E81FC01E20FF31F80818B
:1032B0000E94061789819A81AB81BC810196A11D6C
:1032C000B11D89839A83AB83BC8329813A818D8127
:1032D0009E81FC01E20FF31F8081882309F7269667
:1032E0000FB6F894DEBF0FBECDBFCF91DF9108952A
:1032F000EF92FF920F931F93DF93CF93CDB7DEB77B
:103300006D970FB6F894DEBF0FBECDBF6A8F7B8F6F
:103310008C8F9D8F19868A8D9B8DAC8DBD8D8D83F5
:103320009E83AF83B88715C089858F5F89878D811C
:103330009E81AF81B8852AE030E040E050E0BC01DA
:10334000CD010E94B51ADA01C9018D839E83AF8336
:10335000B8878D819E81AF81B8850097A105B105A1
:1033600019F719821A821B821C8246C08985282F70
:1033700030E040E050E089819A81AB81BC8180954A
:103380009095A095B09579018A01E80EF91E0A1F63
:103390001B1F8A8D9B8DAC8DBD8D2AE030E040E0F7
:1033A00050E0BC01CD010E94B51ADC01CB01282FF1
:1033B000205DCE010A96FC01EE0DFF1D20838A8D53
:1033C0009B8DAC8DBD8D2AE030E040E050E0BC012B
:1033D000CD010E94B51ADA01C9018A8F9B8FAC8F8B
:1033E000BD8F89819A81AB81BC810196A11DB11DE0
:1033F00089839A83AB83BC838A8D9B8DAC8DBD8D75
:103400000097A105B10509F0B1CF8985282F30E0DB
:10341000CE010A96FC01E20FF31F1082CE010A963C
:103420000E9442196D960FB6F894DEBF0FBECDBF55
:10343000CF91DF911F910F91FF90EF900895DF934F
:10344000CF9300D00F92CDB7DEB78A836B838B8189
:10345000882319F48A81898306C08B81813019F40D
:103460008A81805C898389818068898389810E94BF
:1034700024180F900F900F90CF91DF910895DF9354
:10348000CF930F92CDB7DEB789838981882334F437
:1034900083E063E041E00E94180D05C083E063E033
:1034A00040E00E94180D89818295869586958370EB
:1034B000882F90E081709070882331F083E062E083
:1034C00041E00E94180D05C083E062E040E00E94E8
:1034D000180D8981829586958770882F90E081707C
:1034E0009070882331F083E061E041E00E94180D84
:1034F00005C083E061E040E00E94180D898182955B
:103500008F70882F90E081709070882331F083E075
:1035100060E041E00E94180D05C083E060E040E0FB
:103520000E94180D0F90CF91DF910895629FD001F6
:10353000739FF001829FE00DF11D649FE00DF11D6E
:10354000929FF00D839FF00D749FF00D659FF00D1D
:103550009927729FB00DE11DF91F639FB00DE11D0A
:10356000F91FBD01CF0111240895A1E21A2EAA1B53
:10357000BB1BFD010DC0AA1FBB1FEE1FFF1FA21723
:10358000B307E407F50720F0A21BB30BE40BF50B20
:10359000661F771F881F991F1A9469F760957095A9
:1035A000809590959B01AC01BD01CF0108952F92AC
:1035B0003F924F925F926F927F928F929F92AF92C3
:1035C000BF92CF92DF92EF92FF920F931F93CF9310
:1035D000DF93CDB7DEB7CA1BDB0B0FB6F894DEBFA7
:1035E0000FBECDBF09942A88398848885F846E84CD
:1035F0007D848C849B84AA84B984C884DF80EE8017
:10360000FD800C811B81AA81B981CE0FD11D0FB61F
:10361000F894DEBF0FBECDBFED010895F894FFCF43
:10362000202020005245533D000000000000000013
:10363000000001020203030303040404040404045D
:10364000040505050505050505050505050505052B
:10365000050606060606060606060606060606060B
:1036600006060606060606060606060606060606FA
:1036700006070707070707070707070707070707DB
:1036800007070707070707070707070707070707CA
:1036900007070707070707070707070707070707BA
:1036A00007070707070707070707070707070707AA
:1036B000070808080808080808080808080808088B
:1036C000080808080808080808080808080808087A
:1036D000080808080808080808080808080808086A
:1036E000080808080808080808080808080808085A
:1036F000080808080808080808080808080808084A
:103700000808080808080808080808080808080839
:103710000808080808080808080808080808080829
:103720000808080808080808080808080808080819
:1037300008DC003002E80398085C121027F05501FD
:0637400002040810204005
:00000001FF
