:100000000C9433000C94D4060C94D4060C94D406AF
:100010000C94D4060C94D4060C94D4060C94D406F8
:100020000C94D4060C94D4060C94D4060C94D406E8
:100030000C94D4060C94D4060C94D4060C94D406D8
:100040000C9461050C94D4060C94D4060C94D4063C
:100050000C94D406006000708000700088000DB021
:100060000088008B800011241FBECFE5D8E0DEBFE2
:10007000CDBFE4E5F0E040E017C0B591A591359122
:100080002591059107FD0CC095918591EF01F92F00
:10009000E82F05900D92A217B307D9F7FE0104C00F
:1000A0001D92A217B307E1F7E536F40731F70E9476
:0A00B00073000C945B00F894FFCF7E
:1000BA003D3D3D3D4C6F6164696E673D3D3D3D0090
:1000CA005278313D004144433D00436F6E7665727C
:0B00DA0073696F6E204572726F720038
:1000E600CF93DF93CDB7DEB7E4970FB6F894DEBFB4
:1000F6000FBECDBF1A8219822AEB30E040E080E1C4
:10010600F901DE011396742F0E946D0682E591E3D4
:100116009C8B8B8B8DE390E09E8B8D8B2AEC30E055
:1001260040E085E0F901DE015796742F0E946D06C6
:100136002FEC30E040E085E0F901DE015C96742F9B
:100146000E946D0624ED30E040E081E1F901DE0118
:100156009196742F0E946D068DE696E59BAB8AAB51
:100166001CAA0E949D060E9413040E94530681E069
:100176000E9486060F2EF0E6CF2EF0E0DF2EF02D41
:100186000F2EF7E0AF2EF02DB12C81E00E94FC047B
:10019600CE0103960E9435060F2EF0E88F2EF0E072
:1001A6009F2EF02D0F2EF0E6EF2EF0E0FF2EF02D15
:1001B60000E010E0F40161914F010F5F1F4F82E0F4
:1001C6000E94FA05BE016F5F7F4F87E00E948F0590
:1001D600813021F589819A81F7019183808361E0DD
:1001E60086E00E946006B801012E000C880B990B70
:1001F6000E9453042DEC3CEC44E651E40E94CD06EB
:100206000E9432050E94480285E20E94C6048FE1E0
:100216009EE40197F1F700C000000AC0F7011182C1
:10022600108281E00E94FC04CE0181960E94350670
:10023600F2E0EF0EF11C0830110509F0BBCFF60114
:10024600268537852E3AF1E03F0728F487E078C007
:10025600811176C002C00A2D1B2DA8E8B3E10E94C9
:1002660044060E94510420E030E040E85AE30E9430
:10027600CD062B013C0181E00E94FC04CE0147968D
:100286000E94350620E030E040EA5FE3C301B20198
:100296000E94C90620E030E040E85FE30E94A7061E
:1002A60020E030E040E251E40E94CD060E94320593
:1002B6000E94480284EF0E94C60480E20E94C6049F
:1002C600C301B2010E9432050E944802CE01C296C5
:1002D6000E94350661E080E00E946006CE014C96E1
:1002E6000E943506000F111FF801E05AFF4F60818A
:1002F600718180E090E00E94480280E20E94C6047C
:10030600CE0143960E943506F801E059FF4F608101
:10031600718180E090E00E9448022FEF84E39CE028
:10032600215080409040E1F700C00000EFEFF0E779
:1003360022E0E150F0402040E1F700C0000025CF68
:100346008150082F10E0F801EE0FFF1FE05AFF4F13
:10035600208131812E3A91E0390708F479CF7DCF9B
:10036600683008F084C0423008F083C0813031F133
:1003760038F0823009F440C0833009F45BC07BC09A
:10038600442379F0413009F078C02BB381E090E046
:1003960002C0880F991F6A95E2F7822B8BBB81E01A
:1003A60008952BB381E090E002C0880F991F6A95EB
:1003B600E2F7809582238BBB81E00895442379F090
:1003C600413009F05CC028B381E090E002C0880F9C
:1003D600991F6A95E2F7822B88BB81E0089528B3BE
:1003E60081E090E002C0880F991F6A95E2F7809538
:1003F600822388BB81E00895442379F0413009F0D7
:1004060040C025B381E090E002C0880F991F6A952D
:10041600E2F7822B85BB81E0089525B381E090E069
:1004260002C0880F991F6A95E2F78095822385BBE3
:1004360081E00895442371F0413029F522B381E02B
:1004460090E002C0880F991F6A95E2F7822B82BB63
:1004560081E0089522B381E090E002C0880F991FE1
:100466006A95E2F78095822382BB81E0089580E059
:10047600089580E0089580E0089581E0089581E080
:0A048600089581E0089581E00895D3
:100490004F925F926F927F92BF92CF92DF92EF92D4
:1004A000FF920F931F93CF93DF93CDB7DEB7609783
:1004B0000FB6F894DEBF0FBECDBF6B017C01611596
:1004C00071058105910509F450C09B01AC01B12C67
:1004D0000F2EFAE04F2E512C612C712CF02DB3947D
:1004E000CA01B901A30192010E94D8052115310565
:1004F00041055105A1F736C00B2D10E020E030E09A
:1005000001501109210931090F5F1F4F81E090E06F
:100510008C0F9D1F080F191F0F2EFAE04F2E512C24
:10052000612C712CF02DC701B601A30192010E942C
:10053000D805605DF80162938F01C22ED32EE42EA0
:10054000F52EC114D104E104F10469F7E1E0F0E013
:10055000EC0FFD1FEB0DF11D1082CE0101960E94E4
:1005600035060DC0B110C8CF05C080E38983BB2418
:10057000B394ECCF80E38983BB24B394BDCF609662
:100580000FB6F894DEBF0FBECDBFDF91CF911F91A4
:100590000F91FF90EF90DF90CF90BF907F906F9082
:0605A0005F904F900895EA
:1005A60010C00E94B50658F00E94AE0640F029F42D
:1005B6005F3F29F00C94C30651110C94BD060C94B0
:1005C600D1060E94B60568F39923B1F3552391F33A
:1005D600951B550BBB27AA2762177307840738F0AC
:1005E6009F5F5F4F220F331F441FAA1FA9F335D009
:1005F6000E2E3AF0E0E832D091505040E695001CBD
:10060600CAF72BD0FE2F29D0660F771F881FBB1F76
:10061600261737074807AB07B0E809F0BB0B802D54
:10062600BF01FF2793585F4F3AF09E3F510578F080
:100636000C94C3060C94BD065F3FE4F3983ED4F3D6
:10064600869577956795B795F7959F5FC9F7880F54
:10065600911D9695879597F90895E1E0660F771FA6
:10066600881FBB1F621773078407BA0720F0621B37
:0E067600730B840BBA0BEE1F88F7E095089506
:100684000FC00E94AE0638F00E94B50620F09523F4
:1006940011F00C94C3060C94D10611240C94BD06DD
:1006A4000E94B60570F3959FC1F3950F50E0551F56
:1006B400629FF001729FBB27F00DB11D639FAA27B3
:1006C400F00DB11DAA1F649F6627B00DA11D661F02
:1006D400829F2227B00DA11D621F739FB00DA11D23
:1006E400621F839FA00D611D221F749F3327A00DDD
:1006F400611D231F849F600D211D822F762F6A2F79
:1007040011249F5750409AF0F1F088234AF0EE0FDD
:10071400FF1FBB1F661F771F881F91505040A9F70A
:100724009E3F510580F00C94C3060C94BD065F3FB8
:10073400E4F3983ED4F3869577956795B795F79546
:10074400E7959F5FC1F7FE2B880F911D96958795BE
:0407540097F9089574
:1007580011C00E94AE0638F00E94B50620F039F4A8
:100768009F3F19F426F40C94D1060EF4E095E7FBAC
:100778000C94C306E92F0E94B60558F3BA1762070E
:1007880073078407950720F079F4A6F50C94BC0646
:100798000EF4E0950B2EBA2FA02D0B01B901900194
:1007A8000C01CA01A0011124FF27591B99F0593FD8
:1007B80050F4503E68F11A16F040A22F232F342F20
:1007C8004427585FF3CF469537952795A795F0406E
:1007D8005395C9F77EF41F16BA0B620B730B840B83
:1007E800BAF09150A1F0FF0FBB1F661F771F881F3B
:1007F800C2F70EC0BA0F621F731F841F48F4879593
:1008080077956795B795F7959E3F08F0B0CF939584
:0E081800880F08F09927EE0F979587950895A1
:100826002FEB8AED90E0215080409040E1F700C028
:10083600000040E066E083E00E94B30140E065E02E
:1008460083E00E94B30180E20E948E0441E064E0EE
:1008560083E00E94B3018FE99FE00197F1F700C0A2
:10086600000040E064E083E00E94B3019AE69A95B6
:10087600F1F700C08FE00E94FC042AE62A95F1F702
:1008860000C081E00E94FC048FE99FE00197F1F728
:0C08960000C0000086E00E94FC040895F1
:1008A200E89409C097FB3EF4909580957095619508
:1008B2007F4F8F4F9F4F9923A9F0F92F96E9BB27BE
:1008C2009395F695879577956795B795F111F8CF3A
:1008D200FAF4BB0F11F460FF1BC06F5F7F4F8F4FA5
:1008E2009F4F16C0882311F096E911C0772321F09B
:1008F2009EE8872F762F05C0662371F096E8862F33
:1009020070E060E02AF09A95660F771F881FDAF789
:0A091200880F9695879597F90895D0
:10091C00CF93C82F882334F441E060E083E00E9439
:10092C00B30105C040E060E083E00E94B301C6FF64
:10093C0006C041E061E083E00E94B30105C040E0E5
:10094C0061E083E00E94B301C5FF06C041E062E0B4
:10095C0083E00E94B30105C040E062E083E00E94A6
:10096C00B301C4FF06C041E063E083E00E94B30121
:10097C0005C040E063E083E00E94B301CF9108958D
:10098C00CF93C82F41E066E083E00E94B30140E0C2
:10099C0065E083E00E94B3018C2F0E948E0441E03D
:1009AC0064E083E00E94B3018FE99FE00197F1F7C7
:1009BC0000C0000040E064E083E00E94B3018C2F93
:1009CC008295807F0E948E0441E064E083E00E9467
:1009DC00B3018FE99FE00197F1F700C0000040E000
:0C09EC0064E083E00E94B301CF91089505
:1009F800CF93C82F40E066E083E00E94B30140E057
:100A080065E083E00E94B3018C2F0E948E0441E0D0
:100A180064E083E00E94B3018FE99FE00197F1F75A
:100A280000C0000040E064E083E00E94B3018C2F26
:100A38008295807F0E948E0441E064E083E00E94FA
:100A4800B3018FE99FE00197F1F700C0000040E093
:0C0A580064E083E00E94B301CF91089598
:100A64000E94BE0588F09F5798F0B92F9927B75177
:100A7400B0F0E1F0660F771F881F991F1AF0BA953E
:100A8400C9F714C0B13091F00E94BC06B1E00895DA
:100A94000C94BC06672F782F8827B85F39F0B93FCC
:100AA400CCF3869577956795B395D9F73EF49095F1
:0E0AB4008095709561957F4F8F4F9F4F0895ED
:100AC2001F920F920FB60F9211242F933F934F93C1
:100AD2005F936F937F938F939F93AF93BF93EF93A4
:100AE200FF93E0918800F0918900309731F084B152
:100AF20095B10995339810928A00FF91EF91BF91B9
:100B0200AF919F918F917F916F915F914F913F91A3
:0C0B12002F910F900FBE0F901F901895B0
:100B1E00CF93DF93EB010E947A068823C1F02097D2
:100B2E00C1F0369A34990AC080E492E4AFE0B0E0A6
:100B3E00349904C00197A109B109D1F7349B0BC0B8
:100B4E00349A84B195B19983888381E005C080E0A1
:0E0B5E0003C080E001C080E0DF91CF910895D8
:100B6C0057FD9058440F551F59F05F3F71F0479552
:100B7C00880F97FB991F61F09F3F79F08795089537
:100B8C00121613061406551FF2CF4695F1DF08C056
:100B9C00161617061806991FF1CF86957105610573
:040BAC00089408950C
:100BB000A1E21A2EAA1BBB1BFD010DC0AA1FBB1F61
:100BC000EE1FFF1FA217B307E407F50720F0A21BD3
:100BD000B30BE40BF50B661F771F881F991F1A9440
:100BE00069F760957095809590959B01AC01BD016A
:040BF000CF01089594
:100BF400813049F028F0823049F0833051F00CC044
:100C04006BBB81E0089568BB81E0089565BB81E01A
:0C0C1400089562BB81E0089580E008951F
:100C2000843070F4823071F097B19F7397B927B117
:100C300030E4839FC0011124822B87B981E008959D
:080C400080E0089580E00895B2
:100C4800092E0394000C11F4882352F0BB0F40F4D2
:100C5800BF2B11F460FF04C06F5F7F4F8F4F9F4F12
:020C68000895ED
:100C6A00CF93DF93EC018881882331F021960E948B
:0E0C7A00C60489918111FBCFDF91CF910895BF
:100C8800A29FB001B39FC001A39F700D811D1124C5
:0E0C9800911DB29F700D811D1124911D0895B4
:100CA60081E00E94100680E00E9492060E94D6060D
:0A0CB600379A86E00E948606089532
:100CC000662329F0613021F490E4980F01C0982F39
:0A0CD000892F80680E94FC0408953B
:100CDA00992777FD05C005900D920197E1F70895D0
:0A0CEA0001900D920197E1F70895C3
:100CF400803240F497B1907E97B997B1892B87B928
:080D040081E0089580E00895EC
:100D0C00883040F496B19C7F96B996B1892B86B900
:080D1C0081E0089580E00895D4
:100D2400882321F0813029F43D9A08953D9881E08B
:060D3400089580E008951F
:100D3A001ABA17BA8FEF84BB81BB1BBA18BA15BA95
:040D4A0012BA08953C
:0E0D4E005058BB27AA270E94AC030C94240621
:0E0D5C0000240A9416161706180609060895B4
:0E0D6A0000240A9412161306140605060895B6
:0E0D7800E894BB2766277727CB0197F90895EB
:0C0D860097F99F6780E870E060E0089536
:080D92000E94D3020C94240618
:080D9A000E9442030C942406A0
:060DA2009FEF80EC0895B4
:040DA8000C940000A7
:040DAC0035980895D9
:100DB0000A00D0002402D7033E08C6110226485874
:080DC00001020408102040802C
:00000001FF
